:1000000000000220C9460100F1460100F34601004C
:10001000F5460100F7460100F94601000000000026
:10002000000000000000000000000000FB4601008E
:10003000FD46010000000000FF46010001470100ED
:100040000347010003470100694501002D450100F8
:100050004145010003470100AD390100034701009C
:100060000D420100154201001D420100034701003D
:100070000347010003470100034701000347010054
:100080000347010003470100034701000347010044
:100090000347010003470100034701000347010034
:1000A0000347010003470100254201002D420100E2
:1000B00003470100034701000000000000000000AA
:1000C00003470100034701000347010055450100B4
:1000D00003470100034701000347010003470100F4
:1000E0009145010000000000000000000000000039
:1000F0000000000003470100000000007D450100F2
:1001000000000000000000000000000000000000EF
:1001100000000000000000000000000000000000DF
:1001200000000000000000000000000000000000CF
:1001300000000000000000000000000000000000BF
:1001400000000000000000000000000000000000AF
:10015000000000000000000000000000000000009F
:10016000000000000000000000000000000000008F
:10017000000000000000000000000000000000007F
:10018000000000000000000000000000000000006F
:10019000000000000000000000000000000000005F
:1001A000000000000000000000000000000000004F
:1001B000000000000000000000000000000000003F
:1001C000000000000000000000000000000000002F
:1001D000000000000000000000000000000000001F
:1001E000000000000000000000000000000000000F
:1001F00000000000000000000000000000000000FF
:100200007CB0EE877CB0EE87FF00FF00FF00FF00B0
:10021000FF00FF00FF00FF00FF00FF00FF00FF00E6
:10022000FF00FF00FF00FF00FF00FF00FF00FF00D6
:10023000FF00FF00FF00FF002DE9F04F85B00391A4
:100240000778A7F10903042B044607F07F0200F1A9
:100250000100F5D9202AF3D02B2F04BF677804467C
:100260002D2F72D09FED427B8DED007B4FF000086B
:100270004FF000098FB34FF0000E4FF0000ADFF887
:1002800000B1754619E016F00DFF804689463046EC
:1002900016F0A2FE42464B4616F052FD52468046EC
:1002A00089465B46DDE9000135B317F025F8CDE955
:1002B0000001AE4614F8017F7FB1A7F13006092E88
:1002C00052465B4640464946DDD9C5B92E2F16D168
:1002D00014F8017F0125002FEFD142464B46DDE99E
:1002E000000116F0DFFE80468946039B40464946E2
:1002F0001C6005B0BDE8F08F4FF0010EDAE7BEF1EB
:10030000000F29D042464B46DDE9000116F0CAFE37
:1003100007F0DF07452F80468946E6D10399601C28
:100320000A2216F0F1FC16490246002017F01AFACC
:1003300002460B464046494616F0B4FE80468946C2
:100340004046494605B0BDE8F08F9FED0B7B6778CE
:100350008DED007B013489E7DFF828904FF000082D
:100360004046494605B0BDE8F08F00BFAFF30080BE
:10037000000000000000F03F000000000000F0BF9F
:10038000000024400000F87F2DE9F84F16460023B6
:10039000002204460D4617F0F7F8002840F09D8033
:1003A000002200232046294617F0E4F828B1302225
:1003B000002332707370BDE8F88F2046294615F08F
:1003C00073F917F01FF97BA3D3E90023814629466F
:1003D000204617F0D9F8002800F08680B9F1000F08
:1003E000C0F2BE804A4600206F4917F0BBF90246B2
:1003F0000B462046294616F07FFF04460D4666A1AF
:10040000D1E9000101274FF0000822462B4616F0E3
:1004100049FE0022654B16F093FC17F0DFF9002F20
:10042000CC464FF0FF3AC1464FF0000840F38580BC
:10043000DFF888E15E4C0122AEF1700945F6F32544
:100440004FF02E0BA94208BFA0424FF0300309D352
:10045000001B61EB0501A94208BFA04203F10103A3
:10046000F6D2DBB2337050EA010306F1010409D180
:10047000BA4210DACE4502F101020CD026467EE8DF
:100480000245DFE7BA4204BF86F801B0B41CCE458E
:1004900002F10102F2D1B8F1000F0DD02246302155
:1004A00002F8011BC2F1010353442344002BF7DC83
:1004B0002AEAEA7301331C44BCF1010F4CD06523D6
:1004C000BCF1000F2370C5BF2B236370611CA11CFE
:1004D0006046BDE8F84F0FF075B805F100431D46C2
:1004E0002D23337001365BE72DA3D3E9002320468B
:1004F000294617F067F800287FF470AFB9F10E0FA6
:1005000009F101073DDDA9F10E0842460020264908
:1005100017F028F902460B462046294616F0ECFE55
:100520000022224B16F00CFC17F058F9002FA9F10D
:100530000F0A4FF0010C3FF77BAF334630222E24D9
:1005400003F8022B74707FEA090618D01E4403F8E2
:10055000012BB342FBD16BE700232370BDE8F88F7A
:10056000C9F100020020104917F0FCF802460B46C2
:100570002046294616F096FD04460D463FE71E46E6
:1005800056E7C9F10E0200200749C84617F0EAF8FD
:100590004FF0010939E700BF0000901EC4BCD642ED
:1005A00050EFE2D6E41A4B44000024400000E03F44
:1005B00000407A108DEDB5A0F7C6B03E90820100E4
:1005C00070B54FF0FF3006F0B5F904466FF07F408C
:1005D00006F0B0F90646204616F0EEFC00220C4B61
:1005E00016F060FD044630460D4616F0E5FC06A305
:1005F000D3E9002316F080FE02460B46204629462A
:1006000016F09EFB70BD00BF0000E0DFFFFF6F43F0
:100610000000F03D0000000008B510F07FFADFEDAB
:100620000C7A07EE100A67EE277A17EE900A16F09A
:10063000E5FC05A3D3E9002316F05EFE16F0E2FF09
:1006400008BD00BFAFF30080EA2E4454FB211940DF
:100650000000B4430000000008B510F073FADFEDAD
:100660000C7A07EE100A67EE277A17EE900A16F05A
:10067000C5FC05A3D3E9002316F03EFE16F0C2FF29
:1006800008BD00BFAFF30080EA2E4454FB2119409F
:100690000000B44300000000494A21F000439342A7
:1006A0002DE9704304460D464BDC464A93420E4604
:1006B0000EDC3FA3D3E9002316F042FB0022424B9D
:1006C00016F080FF00284CD020462946BDE87083F4
:1006D0003E4A93423BDCB3F1804F42DD14F0DEFB37
:1006E0002246804689462B462046294616F0DAFCEB
:1006F0000022354B16F024FB15F094FA02460B4607
:100700004046494616F01CFB02460B4600202E4987
:1007100016F0F2FD424604460D464B464046494619
:1007200016F00EFB02460B462046294616F008FB43
:1007300002F06AF8002EC9DC01F100431946BDE859
:10074000708302460B4616F0FBFABDE8708314F086
:10075000A5FB02F059F818A3D3E9002316F0F0FA2C
:10076000E8E722462B462046294616F09BFC8046A9
:1007700089462046294614F091FB002204460D4686
:10078000114B4046494616F0DBFA15F04BFA0022B1
:100790000D4B16F0D5FA02460B464046494616F078
:1007A000ABFD22462B4616F0CBFA00F0C5FAC1E7A6
:1007B0009C7500883CE4377EEF39FAFE422EE63F16
:1007C000FFFFEF7FFFFF2F3E0000F03F0000B04132
:1007D0002DE9F84FC44B21F000469E4204460D46D9
:1007E0008A460EDDC14B9E4200F3AC8000F0A7802C
:1007F000BAF1000F40F3EA809FA1D1E90001BDE802
:10080000F88FBB4B9E4200F3B580A3F1DE739E428E
:1008100040F3A0804FF0FF3B22462B46204629465E
:1008200016F040FC02460B468046894616F03AFC1C
:1008300093A3D3E9002306460F4616F033FC92A398
:10084000D3E9002316F07CFA32463B4616F02AFC28
:100850008FA3D3E9002316F073FA32463B4616F015
:1008600021FC8DA3D3E9002316F06AFA32463B46F9
:1008700016F018FC8AA3D3E9002316F061FA324679
:100880003B4616F00FFC88A3D3E9002316F058FA74
:1008900042464B4616F006FC85A3D3E9002380466A
:1008A00089463046394616F0FDFB83A3D3E9002381
:1008B00016F044FA32463B4616F0F4FB80A3D3E927
:1008C000002316F03BFA32463B4616F0EBFB7EA3C4
:1008D000D3E9002316F032FA32463B4616F0E2FB2B
:1008E0007BA3D3E9002316F029FA32463B4616F0E3
:1008F000D9FBBBF1FF3F02460B466CD04046494650
:1009000016F01EFA22462B4616F0CCFB794E7A4B97
:100910004FEACB0B5E449B44DBE9002316F00EFA52
:1009200022462B4616F00AFA02460B46D6E900018B
:1009300016F004FABAF1000F43DBBDE8F88F002887
:100940003FF456AF22462B462046294616F0F8F9CA
:10095000BDE8F88F60A3D3E9002316F0F1F9002277
:10096000664B16F02FFE00283FF454AF2046294670
:10097000BDE8F88F14F092FA614B9E4204460D4692
:1009800039DCA3F550239E425EDC02460B4616F08E
:10099000D7F90022594B16F0D1F9002206460F462E
:1009A0004FF080432046294616F0CAF902460B460E
:1009B0003046394616F0A0FC4FF0000B04460D46B9
:1009C0002AE701F100431946BDE8F88F44A1D1E9B7
:1009D0000001BDE8F88F4046494616F0B1F92246BD
:1009E0002B4616F05FFB02460B462046294616F0C2
:1009F000A5F9BDE8F88F434B9E421ADC0022424B1A
:100A000016F09CF9002206460F463F4B2046294629
:100A100016F048FB0022394B16F092F902460B46BD
:100A20003046394616F068FC4FF0020B04460D467E
:100A3000F2E602460B460020344916F05DFC4FF00A
:100A4000030B04460D46E7E600222C4B16F076F920
:100A5000002206460F46294B2046294616F070F91B
:100A600002460B463046394616F046FC4FF0010B65
:100A700004460D46D0E600BF182D4454FB21F93F33
:100A800011DA22E33AAD903FEB0D76244B7BA93F80
:100A9000513DD0A0660DB13F6E204CC5CD45B73F4E
:100AA000FF8300922449C23F0D5555555555D53FFA
:100AB0002F6C6A2C44B4A2BF9AFDDE522DDEAD3FEE
:100AC0006D9A74AFF2B0B33F711623FEC671BC3F8E
:100AD000C4EB98999999C93F9C7500883CE4377E8E
:100AE000182D4454FB21F9BFFFFF0F440000F07F95
:100AF000FFFFDB3FA0820100C08201000000F03F49
:100B0000FFFFF23FFF7F03400000F83F0000F0BF0F
:100B10002DE9F843C1F30A59A9F2FF35132D024616
:100B20000B460C4606468846074622DC002D50DB65
:100B3000DFF8F09049FA05F901EA090E5EEA0606C7
:100B40001CD036A3D3E9002316F0FAF800220023C4
:100B500016F038FD48B1002C04DD4FF4801343FA41
:100B600005F5A84428EA0904002721463846BDE8CF
:100B7000F883332D06DDB5F5806F3DD0104619465C
:100B8000BDE8F883A9F213494FF0FF3E2EFA09F9A8
:100B900010EA090FF2D021A3D3E9002316F0D0F810
:100BA0000022002316F00EFD0028DED0002C09DD07
:100BB000142D2BD00127C5F1340507FA05F5AE1920
:100BC00028BFB844444626EA090721463846BDE80E
:100BD000F88312A3D3E9002316F0B2F80022002311
:100BE00016F0F0FC0028C0D0002C0BDB54EA0607FE
:100BF00006D00027084CB8E716F0A2F8BDE8F88345
:100C00003C46B2E700274FF00044AEE704F101088C
:100C1000D8E700BFAFF300800000F03F9C7500886C
:100C20003CE4377EFFFF0F002DE9F041C1F30A5786
:100C3000A7F2FF35132D02460B460C4688460646A2
:100C40001CDC002D3FDB3A4F2F41864601EA070CA2
:100C50005CEA0E0E17D034A3D3E9002316F070F827
:100C60000022002316F0AEFC20B1002C3FDB28EA66
:100C70000704002621463046BDE8F081332D06DD0D
:100C8000B5F5806F2FD010461946BDE8F081A7F268
:100C900013474FF0FF3E2EFA07F73842F3D022A356
:100CA000D3E9002316F04CF80022002316F08AFC4A
:100CB0000028DFD0002C20DB444626EA0706214628
:100CC0003046BDE8F08118A3D3E9002316F038F8C8
:100CD0000022002316F076FC0028CBD0002C17DB76
:100CE00000263446C6E716F02BF8BDE8F0814FF435
:100CF000801343FA05F5A844B9E7142D10D0012359
:100D0000C5F1340503FA05F5AE1928BF9844D3E7B9
:100D100024F00042074B324318BF1C460026A9E7C7
:100D200004F10108C8E700BF9C7500883CE4377EE9
:100D3000FFFF0F000000F0BF2DE9F04FD84B9942A4
:100D400087B0804689460E4613DCD64B21F000441E
:100D50009C4218DD0022D44B16F00CFC002879D000
:100D6000002200230020D14916F0C6FA07B0BDE8E2
:100D7000F08FCF4B99422FDD42464B4615F0E0FFF6
:100D800007B0BDE8F08FCB4B9C4270DDCA4B1E44D0
:100D90009E427ED80022C94B4046494615F0D0FFFE
:100DA0004FEA215AAAF2FF3ABAF1000F04460D4663
:100DB0000E4640F3DE8142464B4615F0BFFF024629
:100DC0000B460020BD4915F0B9FF22462B4616F010
:100DD00093FACDE902010BE0B94B9E42DADD9FEDBB
:100DE0009A7B8DED027B4FEA265A4446AAF2FF3ADF
:100DF000B44BC6F313069E4246F07F5500F3E780DE
:100E000045F44015204629460022AC4B15F096FFCC
:100E1000002204460D46AC4B16F044F922462B4600
:100E200016F040F9A046CDE90401A946CDE900013C
:100E3000002E3AD1002200232046294616F09AFBC4
:100E4000002800F0CE80BAF1000F40F0748100203D
:100E5000002195E742464B464046314615F06EFF6D
:100E600002460B4616F048FA07B0BDE8F08F0022A4
:100E7000964B15F065FF0022002316F0A3FB002817
:100E800000F0CC80924B9C4200F3C880404649461B
:100E900076E700228C4B16F005F942464B4616F0D9
:100EA00001F9CDE900014FF0000A00224FF0804324
:100EB0004046494615F044FF02460B464046494627
:100EC00016F01AFA02460B4606460F4616F0EAF8E6
:100ED0005FA3D3E9002304460D4616F0E3F85EA3B2
:100EE000D3E9002315F02CFF22462B4616F0DAF842
:100EF0005BA3D3E9002315F023FF22462B4616F00F
:100F0000D1F859A3D3E9002315F01AFF22462B4646
:100F100016F0C8F856A3D3E9002315F011FF2246B6
:100F20002B4616F0BFF854A3D3E9002315F008FFB1
:100F300022462B4616F0B6F851A3D3E9002315F04C
:100F4000FFFE22462B4616F0ADF804460D46BAF1D8
:100F5000000F00F0BF80504616F03EF84AA3D3E9D8
:100F6000002382468B4616F09DF8DDE90023CDE98B
:100F700004012046294615F0E3FE32463B4616F0B2
:100F800091F843A3D3E9002304460D465046594641
:100F900016F088F8DDE9022315F0D2FE02460B4672
:100FA0002046294615F0CCFE02460B46DDE900013D
:100FB00015F0C4FE42464B4615F0C0FE02460B46F5
:100FC000DDE9040115F0BAFE07B0BDE8F08F45F485
:100FD0000015C6F5801620462946B6100AF1010A0A
:100FE00012E72DA3D3E900232046294616F05AF82C
:100FF00002460B460020314915F0A0FEDDE904232E
:1010000016F050F806460F46BAF1000F73D10246AB
:101010000B462046294615F091FEB1E642464B4666
:101020004046494616F03EF80022274B16F03AF8A3
:1010300002460B464046494615F080FE07B0BDE823
:10104000F08F00BFAFF30080000000000000000040
:1010500044523EDF12F1C23F9FC678D0099AC33F87
:10106000DE03CB966446C73FAF788E1DC571CC3F7B
:10107000599322942449D23F04FA97999999D93FD8
:10108000935555555555E53F0000E0FE422EE63F8D
:10109000763C7935EF39EA3D555555555555E53F7F
:1010A0007982DA3FFFFFEF3F0000F0BF000050C33E
:1010B000FFFFEF7FFFFF1F3E3C412D400000F03F50
:1010C000FFFF3F439DA006000000E03F00005043AB
:1010D000FFFF8F3CDDE9004522462B4615F030FE30
:1010E00032463B4615F0DEFF02460B4620462946B7
:1010F00015F024FE9CE7504615F06EFF23A3D3E9BC
:10110000002382468B4615F0CDFF22A3D3E90023AE
:10111000804689465046594615F0C4FFDDE9022352
:1011200015F00EFE02460B463046394615F006FE17
:1011300022462B46DCE7504615F04EFF15A3D3E9B7
:10114000002306460F4615F0ADFFDDE9022315F03A
:10115000F7FD0EA3D3E9002304460D463046394679
:1011600015F0A0FF02460B462046294615F0E8FD83
:1011700006E60022044B15F0E1FD02460B46404610
:10118000494615F0DBFD20E60000F03F0000E0FEE0
:10119000422EE63F763C7935EF39EA3D000000000B
:1011A00008B514F001FA04A3D3E9002316F0A4F85B
:1011B00008BD00BFAFF30080EF39FAFE422EE63FD4
:1011C0002DE9F043DFF8B4808BB004460D4601F002
:1011D000F3F898F90030013306460F462BD022462B
:1011E0002B462046294616F0F7F9814618BB2046C3
:1011F000294613F053FE1FA3D3E9002316F0E2F9AA
:10120000C8B1194A98F90030CDF820900321CDE9F2
:101210000445CDE902458DE806008BB9134B4FF02C
:101220006042CDE90623684615F08AFB70B1089B41
:101230009BB9DDE90667304639460BB0BDE8F0835F
:101240000B490020022BCDE90601ECD115F004FD7D
:1012500022230360089B002BEBD015F0FDFC089BBC
:101260000360E6E7AFF3008000940100FFFFEF4763
:101270000000F07F7DF8B98FCE338640FB0100205F
:101280002DE9F043DFF8E4808BB004460D4601F011
:1012900043F998F90030013306460F4633D0204613
:1012A000294615F047FB70B32CA3D3E90023204651
:1012B000294616F087F9814650BB2AA3D3E90023BB
:1012C0002046294616F060F9E8B198F90030204A26
:1012D000CDF82090002600270421022BCDE90445FB
:1012E000CDE90245CDE906678DE8060029D06846BC
:1012F00015F026FB28B3089B1BB115F0ADFC089B2D
:101300000360DDE90667304639460BB0BDE8F0837F
:101310000F4A98F90030019203210022CDE90445DB
:10132000CDE90245009108922BB90A4B4FF060427B
:10133000CDE90623DBE708490020022BCDE90601B1
:10134000D5D115F089FC22230360D4E7AFF30080E8
:1013500008940100FFFFEF470000F07FEF39FAFE2D
:10136000422E864051302DD5104987C0FB01002008
:101370002DE9F04FDFF80C938DB006460F4614466A
:101380001D4601F0C5FC99F90080B8F1FF3FCDE999
:10139000000136D022462B462046294616F01CF97D
:1013A000834670BB32463B463046394616F014F948
:1013B0008246002840F0A2803046394600220023B1
:1013C00016F0D8F810B3002200232046294616F064
:1013D000D1F8834600286AD09FEDA17B0122A44B5F
:1013E000CDF828A00292CDE90467CDE906458DED40
:1013F000087B0393B8F1000F45D09FED9B7B8DEDEB
:10140000007BDDE900010DB0BDE8F08FDDE90001F2
:1014100015F090FA8046002800F08D804FF0000A09
:101420004FF0000BDDE9000152465B4616F0A2F8D2
:101430000028E6D03046394615F07CFA0028E0D086
:101440002046294615F076FA0028DAD099F90030BE
:10145000874A039204210022022BCDE90467CDE9DB
:101460000645CDE908AB02910A9203D002A815F017
:1014700067FA68B915F0F0FB2223036008E09FEDDE
:10148000787B8DED087B02A815F05AFA002830D041
:101490000A9B1BB115F0E0FB0A9B03609DED087BE6
:1014A0008DED007BDDE900010DB0BDE8F08F204639
:1014B000294615F03FFA0028A3D000220023204639
:1014C000294616F061F800289BD099F90030684A47
:1014D000CDF828B00121CDE90467CDE90645029198
:1014E0000392002BCBD063490020022BCDE90801E9
:1014F000C9D115F0B1FB21230360C9E70022002305
:101500002046294616F036F800283FF47AAF5A4BA9
:101510005749CDF828B000220120B8F1020FCDE9DB
:1015200004670290CDE90645CDE908230391AAD1CD
:10153000CDE9002365E73046394615F0FBF9002870
:101540003FF46CAF2046294615F0F4F900283FF42B
:1015500065AFDDE900231046194616F03DF8002876
:101560005FD1032399F900800293414B0A90CDE9A2
:101570000467CDE906450393B8F1000F2BD1DFF8DE
:1015800008B14FF0604A0022002330463946CDE9C9
:1015900008AB15F0F9FF00283FF468AF0022374B85
:1015A0002046294615F07EFD04460D4615F0D0F97B
:1015B00002460B462046294615F0DCFF70BB304B37
:1015C00099F900804FF06042CDE90823B8F1020F8D
:1015D0007FF44CAF4EE7DFF8B4B04FF0000A0022C2
:1015E000002330463946CDE908AB15F0CDFF002881
:1015F000ECD00022214B2046294615F053FD04462D
:101600000D4615F0A5F902460B462046294615F071
:10161000B1FF18B9174B0022CDE9082399F90080D2
:10162000D4E799F90090124BCDF828800122CDE93A
:101630000467CDE9064502920393B9F1000F3FF428
:101640001EAF002200231046194615F055FEB9F1D1
:10165000020FCDE908013FF44CAF14E7AFF300806F
:101660000000000000000000000000000000F03F4B
:10167000209401000000F0FF0000F03F0000E03F78
:10168000FFFFEFC7FB010020FFFFEF470000F07FE7
:101690002DE9F84FC44E21F00043B34204460D46F5
:1016A0000DDD03F1404303F58013034340F0B9809F
:1016B000002940F3408100200021BDE8F88FBB4E97
:1016C000B34240F3A6800029C0F2788102460B465F
:1016D0000020B74915F032FB0022B64B15F0E2FCB2
:1016E00004460D4614F09EFA95A3D3E900238946DB
:1016F00080462946204615F0D5FC93A3D3E9002364
:1017000015F01EFB22462B4615F0CCFC90A3D3E926
:10171000002315F013FB22462B4615F0C3FC8EA3C5
:10172000D3E9002315F00CFB22462B4615F0BAFC3A
:101730008BA3D3E9002315F001FB22462B4615F0BD
:10174000B1FC89A3D3E9002315F0FAFA22462B460F
:1017500015F0A8FC86A3D3E9002382468B462046D9
:10176000294615F09FFC84A3D3E9002315F0E6FA7F
:1017700022462B4615F096FC81A3D3E9002315F0F1
:10178000DFFA22462B4615F08DFC7FA3D3E9002318
:1017900015F0D4FA22462B4615F084FC0022844B27
:1017A00015F0CEFA02460B465046594615F0A4FDF8
:1017B00042464B4615F076FC002682468B46324662
:1017C0004B463046494615F06DFC02460B46204616
:1017D000294615F0B3FA324604460D464B464046BC
:1017E000494615F0ADFA02460B462046294615F04B
:1017F00083FD02460B465046594615F0A1FA324683
:101800004B4615F09DFA02460B4615F099FABDE8D5
:10181000F88F694A93420EDC5DA1D1E90001BDE871
:10182000F88F02460B4615F089FA02460B4615F072
:1018300063FDBDE8F88F02460B4615F033FC40A36C
:10184000D3E9002306460F4615F02CFC3EA3D3E94E
:10185000002315F075FA32463B4615F023FC3CA3F5
:10186000D3E9002315F06AFA32463B4615F01AFC1C
:1018700039A3D3E9002315F063FA32463B4615F04D
:1018800011FC37A3D3E9002315F058FA32463B4642
:1018900015F008FC34A3D3E9002315F051FA3246C1
:1018A0003B4615F0FFFB32A3D3E90023804689466F
:1018B0003046394615F0F6FB2FA3D3E9002315F087
:1018C0003DFA32463B4615F0EDFB2DA3D3E900234C
:1018D00015F036FA32463B4615F0E4FB2AA3D3E96D
:1018E000002315F02BFA32463B4615F0DBFB0022B5
:1018F0002F4B15F025FA02460B464046494615F097
:10190000FBFC22462B4615F0CDFB02460B4622A1DE
:10191000D1E9000115F012FA02460B46204629468D
:1019200015F00CFA02460B4619A1D1E9000115F099
:1019300005FABDE8F88F1AA1D1E90001BDE8F88FDA
:1019400009F7FD0DE13D023F88B20175E0EF493F27
:101950003B8F68B52882A43F5544880E55C1C93FC6
:101960007D6FEB0312D6D43F555555555555C53FA0
:1019700082922EB1C5B8B33F59018D1B6C06E63F6C
:10198000C88A599CE52A00404B2D8A1C273A0340FF
:10199000182D4454FB21F93F075C143326A6913CD3
:1019A000182D4454FB210940FFFFEF3FFFFFDF3FAD
:1019B0000000F03F0000E03F0000603C00225C4B74
:1019C00015F0BEF900225B4B15F06CFB40A3D3E988
:1019D000002304460D4615F065FB3FA3D3E9002321
:1019E00015F0AEF922462B4615F05CFB3CA3D3E97B
:1019F000002315F0A3F922462B4615F053FB3AA31A
:101A0000D3E9002315F09CF922462B4615F04AFB3A
:101A100037A3D3E9002315F091F922462B4615F0A0
:101A200041FB35A3D3E9002315F08AF922462B4662
:101A300015F038FB804689462046294614F0F2F816
:101A40002FA3D3E9002306460F462046294615F06A
:101A500029FB2DA3D3E9002315F070F922462B466C
:101A600015F020FB2AA3D3E9002315F069F92246DB
:101A70002B4615F017FB28A3D3E9002315F05EF9D8
:101A800022462B4615F00EFB0022294B15F058F983
:101A900002460B464046494615F02EFC32463B4670
:101AA00015F000FB1EA3D3E9002315F047F93246D9
:101AB0003B4615F045F902460B4615F041F9024642
:101AC0000B4619A1D1E9000115F038F9BDE8F88FEE
:101AD00009F7FD0DE13D023F88B20175E0EF493F96
:101AE0003B8F68B52882A43F5544880E55C1C93F35
:101AF0007D6FEB0312D6D43F555555555555C53F0F
:101B000082922EB1C5B8B33F59018D1B6C06E63FDA
:101B1000C88A599CE52A00404B2D8A1C273A03406D
:101B2000075C143326A6913C182D4454FB21094030
:101B30000000F03F0000E03F434A91422DE9F843A6
:101B400004460D4639DD414A914209DD02F17952E0
:101B5000914240DD02460B4615F0F2F8BDE8F883ED
:101B600001F1404202F58012024330D0B1F1804FC2
:101B70003ADC0022364B15F0E1F802460B460446EB
:101B80000D4615F0DDF8224606460F462B46204648
:101B9000294615F087FA02460B463046394615F0BD
:101BA000CFF814F03FF80B4602462946204615F0C0
:101BB000C7F8BDE8F843FFF7BFB802460B4615F07B
:101BC000BDF802460B4615F097FBBDE8F8830020F0
:101BD0000021BDE8F88300F017FE19A3D3E9002324
:101BE00015F0AEF8BDE8F88302460B4615F05AFA38
:101BF0000022174B15F0A2F814F014F82246804684
:101C000089462B462046294615F09AF84246064654
:101C10000F464B462046294615F092F802460B46E1
:101C200000200B4915F068FB0B460246394630464A
:101C300015F084F8BDE8F84300F0E6BDAFF300808E
:101C4000EF39FAFE422EE63FFFFFEF3FFFFFAF41C5
:101C50000000F03F000000002DE9F047BE4B21F0EE
:101C60000048984584B004460D4612DD08F140480E
:101C700008F58018034658EA030321D002460B46B4
:101C800015F05CF802460B4615F036FB04B0BDE8D3
:101C9000F087B24B98458A4629DCB8F1795F80F22B
:101CA000658191A3D3E9002315F04AF80022AC4BDB
:101CB00015F088FCD8B12046294604B0BDE8F0876D
:101CC0008BA3D3E9002315F0EDF98BA3D3E900230F
:101CD00006460F462046294615F0E4F902460B4613
:101CE0003046394615F02CF804B0BDE8F0872046A0
:101CF000294613F0D3F802460B460020984915F008
:101D00001DF80022974B15F0CDF97DA3D3E90023F0
:101D100004460D4615F0C6F97BA3D3E9002315F060
:101D20000FF822462B4615F0BDF979A3D3E900231D
:101D300015F004F822462B4615F0B4F976A3D3E942
:101D4000002314F0FDFF22462B4615F0ABF974A3D7
:101D5000D3E9002314F0F2FF22462B4615F0A2F936
:101D600071A3D3E9002314F0EBFF22462B4615F0B4
:101D700099F96FA3D3E90023CDE900012046294654
:101D800015F090F96CA3D3E9002314F0D7FF224695
:101D90002B4615F087F96AA3D3E9002314F0D0FF8E
:101DA00022462B4615F07EF967A3D3E9002314F0F1
:101DB000C5FF22462B4615F075F9694B002214F039
:101DC000BFFFCDE902012046294613F02BFF664BE9
:101DD000984506460F4666DCDDE90223DDE9000191
:101DE00015F08AFA3246CDE900013B4630463946C5
:101DF00014F0A6FF02460B46DDE9000115F052F98A
:101E00004FF00008CDE9000142463B4640463946C6
:101E100015F048F902460B462046294614F08EFF7D
:101E2000424604460D463B463046394614F088FF8C
:101E300002460B462046294615F05EFA02460B463E
:101E400014F07EFF02460B462BA1D1E9000114F0ED
:101E500075FF02460B46DDE9000114F06FFF4246B4
:101E600004460D463B464046394614F069FF02469B
:101E70000B4637A1D1E9000114F060FF02460B4682
:101E80002046294614F05AFF02460B4630A1D1E9FC
:101E9000000114F053FFBAF1000F3FF7F7AE01F164
:101EA00000431946F2E6DDE90223DDE9000115F001
:101EB00023FA32463B4615F0F5F832463B4614F01D
:101EC0003FFF02460B4614F03BFF0BA3D3E9002370
:101ED00014F034FF02460B4605A1D1E9000114F0CD
:101EE0002DFFD8E7AFF300809C7500883CE4377E77
:101EF000182D4454FB21F93F075C143326A6913C6E
:101F000009F7FD0DE13D023F88B20175E0EF493F61
:101F10003B8F68B52882A43F5544880E55C1C93F00
:101F20007D6FEB0312D6D43F555555555555C53FDA
:101F300082922EB1C5B8B33F59018D1B6C06E63FA6
:101F4000C88A599CE52A00404B2D8A1C273A034039
:101F5000182D4454FB21E93FFFFFEF3FFFFFDF3F18
:101F60000000F03F0000E03F3233EF3F02460B46F7
:101F700015F098F837A3D3E9002306460F4615F06D
:101F800091F836A3D3E9002314F0DAFE32463B463B
:101F900015F088F833A3D3E9002314F0CFFE3246BE
:101FA0003B4615F07FF831A3D3E9002314F0C8FEB7
:101FB00032463B4615F076F82EA3D3E9002314F001
:101FC000BDFE32463B4615F06DF82CA3D3E9002345
:101FD00014F0B6FE32463B4615F064F829A3D3E967
:101FE0000023804689463046394615F05BF827A322
:101FF000D3E9002314F0A2FE32463B4615F052F816
:1020000024A3D3E9002314F09BFE32463B4615F08F
:1020100049F822A3D3E9002314F090FE32463B4650
:1020200015F040F800220A4B14F08AFE02460B46D7
:102030004046494615F060F922462B4615F032F825
:1020400022462B4614F07CFE04B0BDE8F08700BFAA
:102050000000F03F09F7FD0DE13D023F88B2017538
:10206000E0EF493F3B8F68B52882A43F5544880E76
:1020700055C1C93F7D6FEB0312D6D43F5555555519
:102080005555C53F82922EB1C5B8B33F59018D1B3E
:102090006C06E63FC88A599CE52A00404B2D8A1CF5
:1020A000273A0340000000002DE9F84F1D46534237
:1020B000134325F0004ADFF8E0E14AEAD3737345A1
:1020C000144606460F4647D8C0F1000848EA000803
:1020D00021F0004343EAD878F0458B463CD805F11F
:1020E000404808F5801858EA020850D04FEAA57811
:1020F00008F0020848EAD17850EA030134D052EAE5
:102100000A023CD0F24557D0734538D0A3EB0A03FE
:102110001B153C2B42DC002D70DB22462B46304643
:10212000394615F0E9F812F0B9FEFEF751FBB8F1A7
:10213000010F5FD0B8F1020F4ED0B8F1000F62D09E
:1021400043A3D3E9002314F0F9FD43A3D3E900230B
:1021500014F0F4FDBDE8F88F32463B462046294690
:1021600014F0EEFDBDE8F88FB8F1020F1AD0B8F107
:10217000030F10D13AA1D1E90001BDE8F88FBBF1FE
:10218000000F14DB38A1D1E90001BDE8F88FBDE8EC
:10219000F84FFEF71DBB3946BDE8F88F32A1D1E9F3
:1021A0000001C4E72CA1D1E90001BDE8F88F30A1FE
:1021B000D1E90001BDE8F88F534526D0B8F1020FF0
:1021C000F0D0B8F1030FD5D0B8F1010F4FF00000F7
:1021D00029D00021BDE8F88F1DA3D3E9002314F016
:1021E000ADFD02460B461CA1D1E9000114F0A6FD8D
:1021F000BDE8F88F01F10041BDE8F88F3C338CDA7F
:102200000020002193E7BDE8F88FB8F1020F18D045
:10221000B8F1030F10D0B8F1010F08D016A1D1E921
:102220000001BDE8F88F4FF00041BDE8F88F14A120
:10223000D1E90001BDE8F88F13A1D1E90001BDE8A3
:10224000F88F13A1D1E90001BDE8F88FAFF300804A
:10225000075C143326A6A13C182D4454FB210940E9
:10226000182D4454FB2109C0182D4454FB21F93F7B
:10227000182D4454FB21F9BF182D4454FB21E93F8C
:10228000182D4454FB21E9BFD221337F7CD902C0F1
:10229000D221337F7CD902400000F07F0000000093
:1022A00043422DE9F047034321F000463E4A46EA07
:1022B000D373934204460D4613D896423DD03B4B10
:1022C0009E428A4617DC36A3D3E9002314F038FD7A
:1022D0000022002315F076F9A8B320462946BDE870
:1022E000F08702460B4614F029FD02460B4615F016
:1022F00003F8BDE8F0872E4B9E42354624DD334679
:102300000246314614F01CFD224606460F462B4677
:102310000020254914F012FD02460B46304639468E
:1023200014F0EAFFFEF708FD0022224B14F0BAFE7B
:10233000BAF1000F2FDBBDE8F0870022002314F074
:10234000DBFFBDE8F087354622462B46204629466E
:1023500014F0F6FC22462B4606460F4614F0A2FE69
:102360002246804689462B4600200F4914F0E6FCA1
:1023700002460B464046494614F0BEFF32463B46F5
:1023800014F0DEFCFEF7D8FC00220A4B14F08AFEA3
:10239000BAF1000FCFDA01F100431946BDE8F0872A
:1023A0009C7500883CE4377E0000F03FFFFF2F3E25
:1023B000FFFFDF3F0000E03F2DE9F8434E4B21F0E7
:1023C00000449C4206460F461BDC4C4B9C4222DDDF
:1023D0004B4B9C4263DD4B4B9C427BDD4A4B9C420A
:1023E00046DD01339C4240D041A3D3E9002310468F
:1023F000194614F057FE06460F4630463946BDE8EA
:10240000F88302460B4614F04DFE06460F46304652
:102410003946BDE8F88312F041FD02F0B1FC00221C
:102420003A4B8046894614F08BFCB4F1725F064645
:102430000F46ECDB42464B464046494614F032FE1E
:1024400032463B4604460D463046394614F078FC89
:1024500002460B462046294614F04EFF00222B4B25
:1024600014F06EFC06460F46D1E7294B9842BBD8C4
:102470003046394612F012FD0022264B14F012FEAF
:1024800000F04AF8002204460D46224B14F00AFEE2
:1024900022462B4614F006FE06460F46B7E712F01A
:1024A000FDFC00F039F800221A4B06460F4614F0E6
:1024B000F9FD32463B4604460D460020154914F00E
:1024C0001BFF02460B462046294614F039FC0646FF
:1024D0000F469CE712F0E2FC00F01EF800220D4BC4
:1024E00014F0E0FD06460F4691E700BFAFF3008011
:1024F0009C7500883CE4377EFFFFEF7F422ED63F7D
:10250000FFFF3540412E8640CD3386400000F03F2E
:102510007DF8B98F0000E03F2DE9F04FB04E21F07B
:102520000042B24283B004460D464FEAD1770DD93E
:10253000AC4EB24225D9C1F31303034340F0EC8003
:102540000FB10020002103B0BDE8F08FA64B9A42E6
:1025500000F2CB80A54B9A4200F2DC808AA3D3E93B
:10256000002314F0EDFB0022A14B15F02BF80028FE
:1025700000F006812046294600229D4B14F0E0FB26
:10258000E1E783A3D3E9002315F01CF8002840F00D
:10259000C88081A3D3E900232046294614F0F4FF24
:1025A0000028CED1934E7EA3D3E9002306EBC706C5
:1025B0002046294614F076FDD6E9002314F0C0FB2E
:1025C00015F020F8064614F007FD77A3D3E90023A1
:1025D0008046894614F066FD02460B462046294691
:1025E00014F0ACFB72A3D3E90023CDE9000140460F
:1025F000494614F057FD82468B4652465B46DDE95C
:10260000000114F09BFB04460D4622462B46204653
:10261000294614F047FD68A3D3E900238046894684
:1026200014F040FD66A3D3E9002314F087FB424673
:102630004B4614F037FD64A3D3E9002314F080FB6C
:1026400042464B4614F02EFD61A3D3E9002314F05B
:1026500075FB42464B4614F025FD5FA3D3E90023EA
:1026600014F06EFB42464B4614F01CFD02460B462E
:102670002046294614F062FB80468946002E58D039
:102680002046294642464B4614F00CFD424604467D
:102690000D464B4600204FF0804114F04FFB0246A0
:1026A0000B462046294614F027FE02460B465046AC
:1026B000594614F043FBDDE9002314F03FFB0B46C1
:1026C00002464B49002014F039FB6FF47F739E42A1
:1026D00051DA06F57A7601EB065100224FF0B87315
:1026E00014F0E0FC03B0BDE8F08F434B9A423FF694
:1026F00059AF424BFC002344D3E9002314F01EFBE6
:102700003F4BC7F101062344CDE90001D3E900ABFB
:10271000F61B72E7002678E702460B4614F010FB22
:1027200011E719A3D3E900231046194614F0BAFCA7
:1027300009E702460B462046294614F0B3FC002266
:1027400006460F464FF080434046494614F0F6FADD
:1027500002460B463046394614F0CEFD22462B4643
:1027600014F0ECFA02460B460020214914F0E6FA78
:1027700003B0BDE8F08F01EB065103B0BDE8F08F68
:10278000064642E7AFF300809C7500883CE4377E44
:10279000EF39FAFE422E864051302DD5104987C0C0
:1027A000FE822B654715F73F0000E0FE422EE63F14
:1027B000763C7935EF39EA3DD0A4BE726937663E82
:1027C000F16BD2C541BDBB3E2CDE25AF6A56113F31
:1027D00093BDBE166CC1663F3E5555555555C53F18
:1027E000412E8640FFFFEF7F422ED63FFFFF2F3E58
:1027F0000000F03FE0820100B1A2F03FF082010052
:1028000000830100000000002DE9F04FB1F5801FAA
:1028100085B006460F460B465ADA024621F00044C0
:10282000224300F0F8800029C0F27A810022D64BC2
:1028300014F038FCD54A0B46934206460F466FF01B
:10284000350C4ADCC3F3130505F5152E0EF6647E30
:102850000EF4801E8EF07F5282F440121C1542EA64
:102860000507A4F2FF3464440022C94B30463946C0
:1028700004EB1E5414F062FAAB1CC3F31303022BD7
:1028800082468B464FF0000230DC002314F072FECB
:10289000002800F0C980002C00F04B81204614F085
:1028A0009BFBA5A3D3E9002306460F4614F0FAFBD1
:1028B000A3A3D3E9002304460D463046394614F05D
:1028C000F1FB02460B462046294614F039FA0AE08D
:1028D000AE4A93424FF0000CB4DD32463B463046E0
:1028E000394614F02DFA05B0BDE8F08F4FF0804363
:1028F00014F026FA02460B465046594614F0FCFCEA
:10290000064620460F4614F067FB3246CDE900012B
:102910003B4630463946CDE9026714F0C3FB024618
:102920000B468046894614F0BDFB87A3D3E90023FC
:1029300006460F4614F0B6FB85A3D3E9002314F036
:10294000FFF932463B4614F0ADFB83A3D3E90023E5
:1029500014F0F6F932463B4614F0A4FB80A3D3E909
:10296000002314F0EDF942464B4614F09BFB7EA386
:10297000D3E90023804689463046394614F092FB5D
:102980007BA3D3E9002314F0DBF932463B4614F075
:1029900089FB79A3D3E9002314F0D2F932463B46F0
:1029A00014F080FB0B4602464946404614F0C8F935
:1029B000A5F5C223C5F5D725A3F27A4351351D43AA
:1029C000002D8046894656DD0022724B50465946FE
:1029D00014F068FB52465B4614F064FB06460F4653
:1029E000002C68D132463B464046494614F0A8F9CF
:1029F000DDE9022314F056FB02460B463046394609
:102A000014F09CF902460B465046594614F096F9CC
:102A100005B0BDE8F08F0022002300205E4914F0CD
:102A20006BFC05B0BDE8F08F55A3D3E900235046F9
:102A3000594614F037FB02460B460020554914F066
:102A40007DF9524606460F465B465046594614F0FD
:102A500029FB02460B463046394614F023FB064656
:102A60000F46002C40F09A8002460B4650465946CD
:102A700014F064F937E7002C00F0A4802EA3D3E90A
:102A80000023DDE9000114F00DFB42464B460446ED
:102A90000D465046594614F051F9DDE9022314F071
:102AA00001FB27A3D3E9002306460F46DDE9000119
:102AB00014F0F8FA21E020A3D3E90023DDE90001B6
:102AC00014F0F0FA32463B4604460D46404649466D
:102AD00014F036F9DDE9022314F0E4FA18A3D3E97F
:102AE000002380468946DDE9000114F0DBFA024646
:102AF0000B464046494614F023F902460B46304641
:102B0000394614F01BF952465B4614F017F9024699
:102B10000B462046294614F011F905B0BDE8F08FA8
:102B200002460B4614F00AF90022002314F0E4FBDD
:102B3000D9E600200021D6E60000E0FE422EE63F66
:102B4000763C7935EF39EA3D44523EDF12F1C23F1F
:102B5000DE03CB966446C73F599322942449D23F63
:102B6000935555555555E53F9FC678D0099AC33FB3
:102B7000AF788E1DC571CC3F04FA97999999D93FCA
:102B8000555555555555D53F00005043FFFFEF7F34
:102B90000000F03F0000E03F000050C3204614F06A
:102BA0001BFA0FA3D3E900238046894614F07AFA72
:102BB0000DA3D3E9002304460D464046494614F0D0
:102BC00071FA9AE702460B465046594614F0B6F899
:102BD000DDE9022314F066FA14E700BFAFF30080CA
:102BE0000000E0FE422EE63F763C7935EF39EA3DC3
:102BF000B1F5801F2DE9F84304460D460B461ADA5D
:102C0000024621F00046324359D000295FDB002202
:102C10003B4B14F047FA3B4A0D462B469342044681
:102C20006FF035010CDD22462B462046294614F074
:102C300087F8BDE8F883334A93424FF00001F2DC95
:102C40001815A0F2FF3008444FEAD0794844C3F386
:102C5000130814F0C1F9C9F57F73033348EA03552B
:102C600006460F4620462946FFF7CEFD1EA3D3E9B0
:102C70000023804689463046394614F013FA1CA3D7
:102C8000D3E9002304460D464046494614F00AFAAB
:102C900002460B462046294614F052F816A3D3E903
:102CA000002304460D463046394614F0FBF902462F
:102CB0000B462046294614F043F8BDE8F88300226D
:102CC00000230020104914F017FBBDE8F8830246EA
:102CD0000B4614F033F80022002314F00DFBBDE87E
:102CE000F88300BFAFF30080362BF111F3FE593D9E
:102CF0000EE526157BCBDB3F00609F501344D33F8E
:102D000000005043FFFFEF7F000050C300000000B1
:102D10002DE9F04F23F0004757EA020493B037D073
:102D2000674C21F00046A64283460D4629DC9A46B0
:102D3000964625D0A74224DC614CA74279D0002DCD
:102D400080468946CDE9002377DB0024BEF1000FE1
:102D50002CD15B4B9F4200F08B805A4B9F4261D03D
:102D6000BAF1804F00F0C383574B9A451ED1002D16
:102D70001CDB4046494613B0BDE8F04F12F052BF8D
:102D800058B106F1404606F5801656EA0B0306D107
:102D90004C49002013B0BDE8F08FB742CCDD4B4862
:102DA00013B0BDE8F04F13F0CDBD002440464946B6
:102DB00012F074F8BBF1000F19D126B1414B25F088
:102DC00040429A4213D1BAF1000FC0F2CA83002DDB
:102DD000E0DA06F1404606F5801656EA040300F0F4
:102DE000A584012CD6D101F100431946D2E7ED0F9D
:102DF000013D54EA05034ED0354B9F426EDD03F191
:102E000004739F4240F3FE83324B9E424EDDBAF183
:102E1000000F4EDD28A3D3E900231046194614F015
:102E200041F9B7E7BAF1000FC0F252844046494673
:102E3000B0E7BEF1000F82D0A3E7274B9F4228DC0A
:102E4000A3F154739F4280DD3B15A3F2FF33142B93
:102E500040F35484C3F134032EFA03F202FA03F36D
:102E60009E457FF472AF02F00102C2F102046DE7E9
:102E700006F1404303F5801353EA0B0388D0154B4A
:102E80009E4240F33B83BAF1000F12DBDDE9000103
:102E900080E702245AE742464B461046194613F093
:102EA0004DFF02460B4614F027FA73E7BAF1000F04
:102EB000B0DB002000216DE79C7500883CE4377E84
:102EC0000000F07F0000F03F0000E03FF08A0100CA
:102ED0000000E041FFFFEF3FFFFF3F43B6F5801FDB
:102EE0004FF0000205DAD84B14F0DCF86FF0340232
:102EF0000E463315D54FC6F31306A3F2FF33134422
:102F000046F07F5ABE421A460D934AF4401A40F3E7
:102F10002F83CF4B9E4240F30D849FEDB57B8DED0B
:102F2000087B8DED0E7B9FEDB47B13468DED067B0C
:102F300001330D93AAF5801A0027DDE906235146D7
:102F4000CDE90A0113F0FAFEDDE906238046894641
:102F5000DDE90A0113F0F4FE02460B460020BD49EC
:102F600014F0CAF90A460146CDE910121346494643
:102F70000246404614F096F84FEA6A0343F00053C5
:102F80008C46834603F50023CDE904BCDA468B4624
:102F9000D9190023CDE902AB0293DDE902AB002091
:102FA00006460F4602460B465046594614F07AF83C
:102FB00002460B464046494613F0C0FEDDE90623B3
:102FC000804689463046394613F0B8FE02460B4625
:102FD000DDE90A0113F0B2FE52465B4614F062F8D6
:102FE00002460B464046494613F0A8FEDDE9102391
:102FF00014F058F8DDE90467CDE9060132463B4696
:103000003046394614F04EF87DA3D3E90023064636
:103010000F4614F047F87CA3D3E9002313F090FE89
:1030200032463B4614F03EF879A3D3E9002313F06F
:1030300087FE32463B4614F035F877A3D3E90023E8
:1030400013F07EFE32463B4614F02CF874A3D3E90D
:10305000002313F075FE32463B4614F023F872A3AA
:10306000D3E9002313F06CFE3246804689463B4686
:103070003046394614F016F802460B46404649469B
:1030800014F010F8524606460F465B46DDE904018F
:1030900013F056FEDDE9062314F004F832463B46F1
:1030A00013F04EFE5246804689465B4650465946CE
:1030B00013F0F8FF0022684BCDE90A0113F040FE3F
:1030C00042464B4613F03CFE02980F4606463246F7
:1030D0003B465046594613F0E5FF002282468B4698
:1030E0005D4B3046394613F029FEDDE90A2313F023
:1030F00025FE02460B464046494613F01FFEDDE919
:10310000042313F0CFFF3246804689463B46DDE973
:10311000060113F0C7FF02460B464046494613F02E
:103120000FFE8046894602460B4650465946CDE979
:1031300004AB13F005FEDDE902AB3DA3D3E90023A8
:1031400050460F4613F0AEFFDDE90423CDE902013E
:103150003946504613F0F2FD02460B4640464946BA
:1031600013F0ECFD34A3D3E9002313F09BFF34A349
:10317000D3E90023804689465046394613F092FF32
:1031800002460B464046494613F0DAFDDDE90E23C0
:1031900013F0D6FD80460D98894613F01DFF424678
:1031A00006460F464B46DDE9020113F0C9FDDDE995
:1031B000082313F0C5FD32463B4613F0C1FD3246ED
:1031C0003B4650468B4613F0B9FDDDE9082313F06A
:1031D000B5FDDDE9022313F0B1FD02460B46404682
:1031E000494613F0ABFD8046894637E0AFF30080D7
:1031F0000000000000000000000000000000F03FA0
:10320000EF4E454A287ECA3F65DBC9934A86CD3FCB
:1032100001411DA96074D13F4D268F515555D53FB1
:10322000FFAB6FDBB66DDB3F033333333333E33F49
:10323000000000E009C7EE3FFD033ADC09C7EE3F9E
:10324000F5015B14E02F3EBE000040438E98030062
:1032500079B60B000000F03F00000840013C54EA42
:10326000050300F079819FEDC87B8DED047BDDE9DE
:1032700000120B461446CDE9023400230293DDE927
:10328000024508462B461146224613F057FD52468A
:103290005B4613F007FFDDE9002306460F46404674
:1032A000494613F0FFFE02460B463046394613F0FE
:1032B00047FD2246804689462B4650465946CDE971
:1032C000008913F0EFFE0B46024606460F464046C5
:1032D000494613F035FDC64B994204460D468A46D1
:1032E00040F3168101F13F4303F5E003034340F04F
:1032F000F781A7A3D3E90023DDE9000113F020FD46
:103300003246804689463B462046294613F016FD44
:1033100002460B464046494614F054F9002840F056
:10332000DF81A8464FEA28534FF48012A3F2FE3300
:1033300042FA03F35344C3F30A52AE4DA2F2FF32F2
:103340001541C3F3130423EA05010020C2F1140B55
:1033500044F48014BAF1000F02460B4644FA0BFB0A
:1033600030463946B8BFCBF1000B13F0E7FC0246FC
:103370000B4606460F46DDE9000113F0E1FC4FEA7B
:103380000B5A0D46002484A3D3E900232046294686
:1033900013F088FE3246804689463B462046294641
:1033A00013F0CCFC02460B46DDE9000113F0C6FC2D
:1033B0007BA3D3E9002313F075FE7BA3D3E900239D
:1033C00006460F462046294613F06CFE02460B4681
:1033D0003046394613F0B4FC06460F4602460B460B
:1033E0004046494613F0ACFC42464B4604460D4667
:1033F00013F0A4FC02460B463046394613F09EFCFF
:103400002246804689462B462046294613F04AFE2E
:1034100067A3D3E9002306460F4613F043FE66A3D5
:10342000D3E9002313F08AFC32463B4613F03AFE00
:1034300063A3D3E9002313F083FC32463B4613F029
:1034400031FE61A3D3E9002313F078FC32463B46FA
:1034500013F028FE5EA3D3E9002313F071FC32467B
:103460003B4613F01FFE02460B462046294613F04A
:1034700065FC06460F4602460B462046294613F0D9
:1034800011FE0022CDE900014FF08043304639465D
:1034900013F054FC02460B46DDE9000113F02CFF4B
:1034A000424606460F464B462046294613F0FAFD93
:1034B00042464B4613F044FC02460B463046394622
:1034C00013F03CFC22462B4613F038FC02460B4618
:1034D0000020494913F032FC8A44BAF5801FC0F23B
:1034E00039815146DDE9042313F0DCFD52E4424604
:1034F0004B464046494613F0D5FD4BE4BAF1000F68
:10350000BFF6D7ACDDE90034184604F1004141E4D0
:103510003A4B21F00048984540F3FF80384B0B446C
:1035200003430CD132463B4613F008FC02460B46DF
:10353000DDE9000114F032F800283FF4F3AEDDE9D4
:10354000040125A3D3E9002313F0ACFD22A3D3E9A2
:10355000002313F0A7FD1DE49FED217B8DED047B7F
:1035600085E602460B460020234913F0C5FE2EE4F3
:103570009FED1D7B8DED087B8DED0E7B9FED027B1E
:1035800000278DED067BD8E4000000000000F03F2E
:10359000FE822B654715973C00000000432EE63F56
:1035A000EF39FAFE422EE63F396CA80C615C20BE72
:1035B000D0A4BE726937663EF16BD2C541BDBB3E39
:1035C0002CDE25AF6A56113F93BDBE166CC1663F17
:1035D0003E5555555555C53F59F3F8C21F6EA501C7
:1035E000000000000000F0BF00000000000000002C
:1035F000FFFF8F40FFFF0F000000F03FFFCB904028
:1036000000346F3F684B9E427FF750AC674B9E4241
:103610003FF7FDAB0022654B13F090FB52A3D3E9BB
:10362000002306460F4613F03DFD51A3D3E90023C6
:10363000804689463046394613F034FD00228246E2
:103640008B465B4B3046394613F02CFD02460B4649
:1036500049A1D1E9000113F071FB32463B4613F05A
:1036600021FD02460B460020524913F067FB32460B
:10367000CDE902013B463046394613F013FD0246C0
:103680000B46DDE9020113F00DFD3DA3D3E9002354
:1036900013F008FD02460B465046594613F04EFB08
:1036A00002460B4606460F464046494613F048FB85
:1036B00042464B46002082468B4613F03FFB0246B3
:1036C0000B463046394613F039FB80468946C5E53E
:1036D00042464B460020354913F00EFEFFF75ABB19
:1036E000DDE9040128A3D3E9002313F0DBFC26A3C2
:1036F000D3E9002313F0D6FCFFF74CBBBEF1000F5B
:103700007FF453ABC3F1140347FA03F202FA03F355
:103710009F4223D07446FFF720BB264B98453FF7C6
:1037200001AEDDE90223924693462BE602460B46A4
:10373000FFF7B3BB9FED167B8DED087B9FED167BEE
:103740008DED0E7B9FED167B4FF480278DED067B74
:10375000FFF7F3BB5A4601F04FFDC3E602F001024A
:10376000C2F10204FFF7F9BA000000604715F73F05
:1037700044DF5DF80BAE543E555555555555D53F74
:10378000FE822B654715F73F9C7500883CE4377E29
:103790000000004003B8E23F06D0CF43EBFD4C3EB3
:1037A000000000000000F83FFEFFEF3F0000F03F88
:1037B0000000D03F0000E03F2DE9F0479C4B21F096
:1037C00000479F4290B08046894640F38E80994BD7
:1037D0009F420C46924626DC00298BA3D3E90023A6
:1037E00040F3B08113F0AAFA934B9F4204460D4672
:1037F00000F0908086A3D3E9002313F09FFA0246DD
:103800000B46CAE900232046294613F097FA80A305
:10381000D3E9002313F092FA0125CAE902012846F0
:1038200010B0BDE8F087854B9F4240F39080844BF9
:103830009F4265DC3D15A5F21645A7EB05531946D9
:103840001F46064613F0DEFE13F0C6FB804689468F
:1038500042464B4630463946CDE90A8913F06EFAA6
:103860000022784B13F01EFC8946804613F0CAFEF6
:1038700013F0B2FB06460F4632463B4640464946E9
:10388000CDE90C6713F05AFA00226E4B13F00AFCD4
:1038900000220023CDE90E0113F06CFE002800F099
:1038A0006F81002330463946002213F063FE002862
:1038B00014BF01230223644A019202212A46009187
:1038C0000AA8514600F08CFB002C054614DADAF801
:1038D0000420DAF80C3002F1004203F100434542C3
:1038E000CAF80420CAF80C3006E000200021C2E922
:1038F0000089C2E902010025284610B0BDE8F08722
:1039000002460B4613F01AFA0025CAE90201CAE979
:103910000001F1E740A3D3E9002313F00FFA40A31D
:10392000D3E900230D46044613F008FA02460B467D
:10393000CAE900232946204613F000FA38A3D3E948
:10394000002313F0FBF90125CAE90201D4E711F0C5
:10395000A5FA35A3D3E900238046894613F0A2FBDC
:1039600000223A4B13F0ECF913F04CFE054613F02D
:1039700033FB25A3D3E90023CDE9060113F092FB25
:1039800002460B464046494613F0D8F920A3D3E936
:103990000023CDE90201DDE9060113F083FB1F2DB1
:1039A00080468946CDE9048954DC294B6A1E53F8C8
:1039B00022309F424ED002460B46DDE9020113F051
:1039C000BDF980468946CAE9008942464B46DDE991
:1039D000020113F0B3F9DDE9042313F0AFF9002C71
:1039E000CAE9020188DA09F1004401F100436D429D
:1039F000CAF80080CAF80440CAF80800CAF80C30B7
:103A00007AE700BFAFF3008000004054FB21F93F8C
:103A10003163621A61B4D03D0000601A61B4D03DD8
:103A20007370032E8A19A33B83C8C96D305FE43FCE
:103A3000FB21E93F7BD90240FB21F93FFB213941C2
:103A4000FFFFEF7F00007041BC9401000000E03FE9
:103A50003C940100DDE90423DDE9020113F06EF975
:103A60003F15C1F30A53FB1A80468946102BCAE959
:103A70000089AADD58A3D3E90023DDE9060113F08C
:103A800011FB8046894602460B46DDE9020113F030
:103A900055F902460B46DDE90201CDE9082313F092
:103AA0004DF942464B4613F049F94DA3D3E90023A3
:103AB00080468946DDE9060113F0F4FA42464B469A
:103AC00013F03CF90B46CDE904010246DDE908019B
:103AD00013F034F9C1F30A53FF1A80468946312F97
:103AE000CAE900896CDD41A3D3E90023DDE90601C1
:103AF00013F0D8FADDE9088906460F4602460B4660
:103B00004046494613F01AF902460B4640464946DC
:103B1000CDE9022313F012F932463B4613F00EF9B9
:103B200034A3D3E9002306460F46DDE9060113F06E
:103B3000B9FA32463B4613F001F902460B46CDE98D
:103B400004233AE713F0FCF8274B9F4204460D4646
:103B500018D01FA3D3E9002313F0F2F802460B4656
:103B6000CAE900232946204613F0E8F818A3D3E950
:103B7000002313F0E5F84FF0FF35CAE90201BBE678
:103B8000032398E614A3D3E9002313F0D9F814A370
:103B9000D3E900230D46044613F0D2F802460B4643
:103BA000CAE900232946204613F0C8F80CA3D3E93C
:103BB000002313F0C5F84FF0FF35CAE902019BE678
:103BC0009DED087B8DED027BFFE600BFAFF300802B
:103BD0003163621A61B4D03D0000601A61B4D03D17
:103BE0007370032E8A19A33BFB21F93F0000002EBE
:103BF0008A19A33BC14920259A837B390000000024
:103C0000594A2DE9F84F21F00048904506460F46E5
:103C10002BDC564B0029B4BF554D564D98454FF0FF
:103C2000000410DC544B984570DC4DA3D3E900230D
:103C300013F086F80022514B13F0C4FCD8B1304683
:103C40003946BDE8F88F4E4B98457CDD4D4B984585
:103C500044DD013398453ED03046394640A3D3E990
:103C6000002313F01FFABDE8F88F02460B4613F04D
:103C700067F8BDE8F88F3046394611F00FF901F0CA
:103C80007FF806460F4632463B463046394613F02B
:103C900057F8324682468B463B463046394613F04B
:103CA00001FA002280468946344B3046394613F0EB
:103CB00047F802460B464046494613F01DFB0246B4
:103CC0000B465046594613F039F822462B4613F05E
:103CD000E9F9BDE8F88F2C4B9842BDD830463946FB
:103CE00011F0DCF80022234B13F0DCF9FEF714FC92
:103CF00006460F4602460B462046294613F0D2F9E7
:103D000032463B4613F0CEF9BDE8F88F11F0C6F805
:103D100001F036F81D4B984506460F46B3DD0022EC
:103D2000164B13F00DF802460B463046394613F099
:103D3000E3FA32463B4613F003F822462B4613F0D3
:103D4000B1F9BDE8F88F11F0A9F8FEF7E5FB0246DE
:103D50000B462046294613F0A5F9BDE8F88F00BFB1
:103D60003374AC3C1F7BAC7FFFFFEF7FFFFF354020
:103D70000000E0BF0000E03FFFFF2F3E0000F03FEB
:103D8000412E8640CD3386407DF8B98FFFFFEF3F4F
:103D90002DE9F04F21F00048B8F1795F85B0064673
:103DA0000F4692469B466BDA13F02CFC002800F07D
:103DB000EA8032463B463046394613F073F974A325
:103DC000D3E9002304460D4613F06CF972A3D3E93E
:103DD000002312F0B5FF22462B4613F063F970A3BF
:103DE000D3E9002312F0AAFF22462B4613F05AF91A
:103DF0006DA3D3E9002312F0A3FF22462B4613F054
:103E000051F96BA3D3E9002312F098FF22462B4609
:103E100013F048F968A3D3E9002312F091FF22467A
:103E20002B4613F03FF9CDE900010022664B2046F6
:103E3000294613F037F9DDE90023804689462046FC
:103E4000294613F02FF9524604460D465B4630468C
:103E5000394613F027F902460B462046294612F050
:103E60006DFF02460B464046494612F067FF024688
:103E70000B460020554912F061FF05B0BDE8F08FF8
:103E800002460B4613F00EF941A3D3E90023044682
:103E90000D4613F007F940A3D3E9002312F050FFB9
:103EA00022462B4613F0FEF83DA3D3E9002312F07F
:103EB00045FF22462B4613F0F5F83BA3D3E9002338
:103EC00012F03EFF22462B4613F0ECF838A3D3E95C
:103ED000002312F033FF22462B4613F0E3F836A3FB
:103EE000D3E9002312F02CFF2B46224613F0DAF818
:103EF000374B9845CDE9000197DD364B984539DCC5
:103F0000A8F500130022002030499046994612F08F
:103F100015FFCDE9020100222B4B2046294613F064
:103F2000C1F842464B4612F009FFDDE90023804606
:103F300089462046294613F0B5F8524604460D46F8
:103F40005B463046394613F0ADF802460B46204634
:103F5000294612F0F3FE02460B464046494612F04F
:103F6000EDFE02460B46DDE9020112F0E7FE05B068
:103F7000BDE8F08F9FED127B4FF000088DED027BC6
:103F8000DFF85490C7E71149002005B0BDE8F08F75
:103F9000D43888BEE9FAA8BDC4B1B4BD9EEE213EB6
:103FA000AD529C804F7E923E9015CB19A001FA3EF7
:103FB0007751C1166CC1563F4C5555555555A53FC7
:103FC000000000000000E73F0000E03F0000F03F7D
:103FD0003233D33F0000E93F0000D23F0000000031
:103FE0002DE9F04FADF51B7D9F4CA49E9F4D54F8DD
:103FF000264007942646D41E85FB0475E417C4EBBF
:10400000A50424EAE4741D460A93631CA3EB83030E
:10401000013D02EBC30306932B460B940395651BEE
:10402000F418049008911AD42C4400260027013477
:104030000DF18808DDF8949208E059F8250012F097
:10404000CBFF0135A542E8E8020108D0002DF4DAE3
:10405000013530463946A542E8E80201F6D1079B12
:10406000002BC0F2DF83079B03F1010B0A9B22A9FF
:10407000DB001A4601EB03090093049B0DF5E47A7B
:1040800019460AEBCB0B01EB0208039B002BC0F295
:10409000F582049C4D460026002775E90223F4E8CA
:1040A000020112F0FFFF02460B463046394612F07D
:1040B00047FE444506460F46EFD1EAE80267DA4577
:1040C00009F10809E1D107990098049C009101F1D8
:1040D0008043013B9B0020441A1F83460EA80244E4
:1040E00003440C920D93009A9AA901EBC203002A93
:1040F00053E9284529DD0DF5E47A0AEBC2080DF1F4
:10410000340900225A4B2046294612F0CBFF13F007
:1041100079FA12F061FF0022564B06460F4612F064
:10412000C1FF02460B462046294612F007FE13F057
:1041300069FA78E9022349F8040F3946304612F04B
:10414000FFFDD04504460D46DBD1DDF81890204632
:1041500029464A4601F050F800224FF07F530446AA
:104160000D4612F09FFFFCF75FFD0022424B12F05C
:1041700099FF02460B462046294612F0DFFD0D4608
:10418000044613F03FFA804612F026FF0B46024623
:104190002946204612F0D2FD4B46002B06460F461C
:1041A00040F3F980009A0EA9013AC9F1180351F8B9
:1041B000225045FA03F101FA03F30EA8EB1A40F876
:1041C0002230C9F11705884443FA05F5002D6DDD4D
:1041D000009B002B08F1010840F36F820E9C002C1D
:1041E00040F01683009B012B40F38F820EAA01231F
:1041F00052F8044F002C00F08382581C0EAAC4F120
:10420000807442F82340009A824219DD0EAA0EAC57
:1042100052F820106FF07F42511A44F82010009994
:10422000023399420CDD1046009A0EA901EB83037C
:1042300001EB82011A68821A43F8042B8B42F9D1F0
:10424000069B002B1ADD069B012B4FF0010440F06A
:104250003C82009B5A1E0EAB0EA953F82230C3F3CA
:10426000160341F822303CE25C990100ABAAAA2A6D
:104270000000703E0000704100002040022D15D16A
:1042800032463B460020924912F058FD06460F4642
:10429000069A8F49002000F0AFFF02460B463046D9
:1042A000394612F04BFD022506460F460022002338
:1042B0003046394613F05EF9002800F03782009A44
:1042C000079B501E83420FDC02F18043013B0EAA84
:1042D0000D9C02EB8303002253F80419A34242EA27
:1042E0000102F9D1002A67D1079B0EAA013B52F8BF
:1042F0002330002B40F018820C9A012352F8041945
:1043000001330029FAD0009AD31802F1010A9A4524
:1043100009933DDC009B0A990B9A0B4409990AEB1F
:104320000208994622AB08F1804803EBC9098B18B3
:10433000A59A08F1FF3802EB880872AA02EBCA0AB4
:10434000A59A02EB8303009358F8040F12F044FE81
:10435000039B002BE9E802014FF000064FF0000735
:1043600011DB049C4D4675E90223F4E8020112F0CA
:1043700099FE02460B463046394612F0E1FC5C4598
:1043800006460F46EFD1009B9845EAE80267DBD16D
:10439000099B0093A7E606D1009B0EAA013B52F8A9
:1043A0002350ED1512E700224A4B13F001F90028C3
:1043B00040F06E81054679E70EA9039551F820304B
:1043C0000699CDF8248018390246009006916BB901
:1043D00000F18043013B0EA800EB830353F804096E
:1043E000013A18390028F9D000920691069A384906
:1043F000002000F001FF009B002B04460D46C0F298
:10440000F781DA0072A901EB020B06920EAA02EB09
:104410008306DFF8C4904FF000080BF1080704365C
:1044200056F8040D12F0D8FD22462B4612F03AFE43
:104430004B4667E9020142462046294612F032FE09
:104440000EAB9E4204460D46EAD14AACDDF81C9004
:1044500004944FF0000AB9F1000FC0F22B81DFF88D
:104460007C805D4618A1D1E90001002600270024C8
:1044700003E0544510DCF8E80201F5E8022312F0ED
:1044800011FE02460B463046394612F059FC013403
:10449000A14506460F46ECDA049B03EBCA03ABF1D9
:1044A000080BC3E9006770AB9B450AF1010AD2D142
:1044B000A49B049C032B00F28980DFE803F0C58EE7
:1044C0008E1100BFAFF3008000000040FB21F93FD8
:1044D0000000F03F0000E03F0000703E2883010034
:1044E000009B002B40F38181069A04EB020ADAE973
:1044F000008902F1080525440DF5987B1AED027B31
:1045000042464B4651EC170B8DED047B12F018FC24
:1045100006460F4602460B46DDE9040112F00EFC8A
:1045200042464B4612F00CFC65E902015D45B0467F
:10453000B9466AE90267E1D1009B012B40F355813E
:10454000069BE518D5E9008903F1080B04EB0B0A7B
:1045500015ED027B42464B4651EC170B8DED007B6F
:1045600012F0EEFB06460F4602460B46DDE900015F
:1045700012F0E4FB4B46424612F0E2FB6AE902010C
:104580004EAB5345B046B94665E90267E0D100201D
:10459000002104EB0B0575E9022312F0D1FBAA45BB
:1045A000F9D1039B002B00F00A816268E368089F41
:1045B0002568A4683D6002F1004203F1004301F167
:1045C00000417A60FB60BC6038617961099B03F04F
:1045D00007000DF51B7DBDE8F08F069D08352544CD
:1045E0000020002175E9022312F0AAFBA542F9D1AF
:1045F000039B002B00F0D280089E024601F100438D
:1046000086E80C000B460246D4E9000112F096FB46
:10461000009B002B0BDD4CAD0124F5E8022312F0CA
:104620008FFB009B0134A342F7DA039B13B101F126
:1046300000431946089BC3E90201099B03F00700E8
:104640000DF51B7DBDE8F08F069D0835002000218B
:10465000254475E9022312F073FBAC42F9D1039BA8
:1046600013B101F100431946089BC3E90001099BFE
:1046700003F007000DF51B7DBDE8F08F0026002735
:10468000EAE80267DA4509F108097FF4FEAC1AE5A9
:10469000009B002B08F10108C8BF02253FF79EAD23
:1046A00032463B460020614912F048FB022506468F
:1046B0000F46FBE500260027EEE6069B002B27DDD4
:1046C0000024069B012B3FF4C4AD022B09D1009BB3
:1046D0005A1E0EAB0EA953F82230C3F3150341F84E
:1046E0002230022D7FF4E2AD32463B4600204F4996
:1046F00012F024FB06460F46002C3FF4D7ADC7E569
:104700000099013399427FF473AD069B002BD8DCEE
:10471000022D7FF4CBAD32463B460020434912F0D8
:104720000DFB06460F46C1E50123ECE53946069F21
:1047300003957A423046CDF8248000F05DFD0022DA
:104740003B4B04460D4612F033FF002843D00022B5
:10475000384B2046294612F0A5FC12F053FF0646BE
:1047600012F03AFC0022324B12F09CFC02460B463F
:104770002046294612F0E2FA12F044FF00990B4657
:1047800001331A4600933B46183306930B460EA995
:1047900041F82300134641F8236027E6089B0246B0
:1047A000C3E900010B46D4E9000112F0C7FA009BEF
:1047B000002B3FF730AF089BC3E902013DE7D4E986
:1047C0000067D4E90223089DC5E90401C5E9006733
:1047D000C5E90223FAE62946204612F013FF009AA3
:1047E0000EA941F8220001E64AAC00200021D8E6DB
:1047F000A49B032B3FF6EAAE01A252F823F000BFC0
:104800001F4800001748000017480000E947000053
:1048100001200023F2E4002000214AACE8E6002059
:1048200000211CE70A9BDB0000934CE40000F03FF2
:10483000000070410000703E2DE9F04F21F000466D
:10484000B6F1795F85B004460D469046994604DA84
:1048500012F0D8FE002800F0858022462B46204624
:10486000294612F01FFC06460F4602460B4620461C
:10487000294612F017FC41A3D3E9002382468B4658
:104880003046394612F00EFC3EA3D3E9002312F065
:1048900055FA32463B4612F005FC3CA3D3E900230F
:1048A00012F04EFA32463B4612F0FCFB39A3D3E934
:1048B000002312F043FA32463B4612F0F3FB37A3D3
:1048C000D3E9002312F03CFA0E9BCDE900019BB323
:1048D0000022294B4046494612F0E4FBDDE9002363
:1048E000CDE902015046594612F0DCFB02460B4668
:1048F000DDE9020112F022FA32463B4612F0D2FB09
:1049000042464B4612F01AFA19A3D3E90023064691
:104910000F465046594612F0C5FB02460B4630463C
:10492000394612F00DFA02460B462046294612F08F
:1049300005FA05B0BDE8F08F02460B463046394611
:1049400012F0B0FB0AA3D3E9002312F0F7F95246A4
:104950005B4612F0A7FB22462B4612F0F1F905B098
:10496000BDE8F08F2046294605B0BDE8F08F00BFB6
:10497000495555555555C53F0000E03F7CD5CF5AA8
:104980003AD9E53DEB9C2B8AE6E55A3E7DFEB157D0
:10499000E31DC73ED561C119A0012A3FA6F8101139
:1049A0001111813F000000002DE9F04FBE4C21F0B5
:1049B000004687B0A64282468B460F46CDE90023CB
:1049C0001BDC12F01FFE002837D153461E43109BFC
:1049D0000133334300F0B381109B012B00F0C881F9
:1049E00052465B460020B14912F086FC04460D4653
:1049F0002046294607B0BDE8F08FAD4B9E421CDD36
:104A00000029C0F2A98152465B4687A1D1E9000185
:104A100012F094F9DDE9002304460D4684A1D1E9A2
:104A2000000112F08BF99FED847B22462B468DED21
:104A3000007B12F085F982468B4652465B46504613
:104A4000594612F02FFB02460B468046894612F06B
:104A500029FB424604460D464B465046594612F045
:104A600021FB77A3D3E90023CDE9020120462946A3
:104A700012F018FB74A3D3E9002312F061F9224667
:104A80002B4612F00FFB72A3D3E9002312F058F962
:104A900022462B4612F006FB6FA3D3E9002312F047
:104AA0004FF922462B4612F0FDFA6DA3D3E90023FD
:104AB00012F046F922462B4612F0F4FA6AA3D3E923
:104AC000002312F03DF942464B4612F0EBFA68A380
:104AD000D3E90023CDE904012046294612F0E2FA89
:104AE00065A3D3E9002312F02BF922462B4612F0DE
:104AF000D9FA63A3D3E9002312F022F922462B4608
:104B000012F0D0FA60A3D3E9002312F019F922467B
:104B10002B4612F0C7FA5EA3D3E9002312F010F976
:104B200022462B4612F0BEFA5BA3D3E9002312F013
:104B300007F902460B46DDE9040112F001F9DDE94F
:104B4000022312F0AFFADDE9004522462B4612F0AF
:104B5000F7F842464B4612F0A5FA02460B462046AD
:104B6000294612F0EDF84EA3D3E9002304460D4682
:104B7000DDE9020112F096FA22462B4612F0E0F827
:104B80000B460246804689465046594612F0D8F8F0
:104B9000474B9E4204460D4600F38E80109B012B2E
:104BA0003BD002460B460020404912F0A5FB0024F2
:104BB00006460F462046294652465B46CDE9006729
:104BC000CDE90201009412F0B9F8DDE900AB02462C
:104BD0000B464046494612F0B1F852465B4612F089
:104BE00061FA524604460D465B46DDE9020112F0C9
:104BF00059FA00222F4B12F0A3F802460B4620462A
:104C0000294612F09DF832463B4612F04BFA5246C6
:104C10005B4612F095F804460D462046294607B03B
:104C2000BDE8F08FAFF30080182D4454FB21E93F1D
:104C3000075C143326A6813C000000000000000041
:104C4000D47ABF74702AFB3EE9A7F0320FB8123F46
:104C500068108D1AF726303F1583E0FEC8DB573FFA
:104C600093846EE9E326823FFE41B31BBAA1AB3FBA
:104C7000735360DBCB75F3BEA69237A0887E143FDA
:104C80000165F2F2D844433F280356C9226D6D3FB7
:104C900037D60684F464963F7AFE10111111C13F95
:104CA000635555555555D53FFFFF2F3E0000F0BFCA
:104CB0002794E53F0000F03F109812F08DF922464E
:104CC000CDE900012B462046294612F0EBF9DDE93B
:104CD0000023CDE902012046294612F031F80246B0
:104CE0000B46DDE9020112F007FB42464B4612F08B
:104CF00025F802460B465046594612F01FF8024668
:104D00000B4612F01DF802460B46DDE9000112F0D9
:104D100015F80446B81700F00200C0F101000D4676
:104D200012F05AF902460B462046294612F0BAF90B
:104D300004460D462046294607B0BDE8F08F504690
:104D4000594610F0ABF802460B4600200A4912F013
:104D5000D3FA04460D4660E7DDE9004501F1004164
:104D6000224605F1004382468B46CDE900234AE600
:104D700054465D4651E700BF0000F03F00000000D0
:104D80002DE9F04FD24A21F00043934285B082468C
:104D90008B460C462DD9CF4A93421AD8002C80F26C
:104DA0001681B5A3D3E900235046594611F0C8FF38
:104DB0000022002312F0E8FBC0B9B1A3D3E900231D
:104DC0005046594612F06EF902460B460020C24981
:104DD00008E1C24A934240F2D0800346C1F3130275
:104DE000134340F0F481002980F2C4800020BC49C4
:104DF000C0E0BC4A934200F22981BB4A934240F290
:104E0000DE80002301930022B84B5046594612F031
:104E100049F906460F4602460B465046594612F0DF
:104E200041F999A3D3E9002304460D4612F03AF95B
:104E300097A3D3E9002311F083FF22462B4612F0FB
:104E400031F995A3D3E9002311F078FF22462B46D0
:104E500012F028F992A3D3E9002311F071FF224642
:104E60002B4612F01FF990A3D3E9002311F066FF3F
:104E700022462B4612F016F900229D4B11F060FFDE
:104E80008046894602460B463046394612F00AF9FA
:104E900002460B460020974911F050FF0646024695
:104EA0000B460F464046494611F048FF32468046C1
:104EB00089463B465046594612F0F4F802460B46E6
:104EC00000208D4911F03AFF02460B464046494604
:104ED00012F012FA22462B4612F0E4F8019E024626
:104EE0000B46002E38D0DDE9026732463B4611F012
:104EF00025FF52465B4612F0D5F832463B4611F08C
:104F00001DFF2B46224611F019FF019B0133064677
:104F10000F4600F00F81019B012B00F0F180019BF7
:104F20000133392B39D8019B132B40F31281019C9B
:104F3000C4F57F75033500222B0511F001FF0246F1
:104F40000B465046594611F0F9FE0022684B11F00D
:104F5000F7FE01EB04510DE05046594612F0A2F85D
:104F600022462B4611F0EAFE02460B4650465946B1
:104F700011F0E4FE05B0BDE8F08F4DA3D3E90023A6
:104F800012F020FB00283FF409AF4BA3D3E9002324
:104F90001046194612F086F8ECE752465B4611F0CF
:104FA000CDFE02460B460020514911F0C7FE019A82
:104FB0004F4B01EB0251002211F0C0FEDAE73EA395
:104FC000D3E9002311F0BCFE02460B46CAE72CA32E
:104FD000D3E900235046594612F064F80B46434982
:104FE0000246002011F0ACFE12F00CFB019011F013
:104FF000F3FF33A3D3E9002306460F4612F052F81D
:1050000002460B465046594611F098FE2EA3D3E9AE
:105010000023804689463046394612F043F806465A
:105020000F4632463B464046494611F087FE02464F
:105030000B4682468B464046494611F07FFE32467B
:105040003B4611F07BFECDE90201DCE62B4A9342A0
:1050500000F2958000291AA3D3E90023C0F2AC80A6
:1050600011F06CFE012380468946019316A7D7E90B
:105070000067D6E7AFF3008059F3F8C21F6EA501B1
:10508000FE822B654715F73F2DC3096EB7FD8ABE1B
:105090003952E686CACFD03EB7DBAA9E19CE143F5E
:1050A0008555FE19A0015A3FF41011111111A13FAD
:1050B000EF39FAFE422E86409C7500883CE4377E2C
:1050C0000000E0FE422EE63F763C7935EF39EA3DBE
:1050D00079684340412E86400000E0BFFFFFEF7F2C
:1050E0000000F0BF422ED63FFFFF8F3C0000E03FA4
:1050F0000000F03F0000084000001840B1A2F03F5F
:105100000022394B5046594612F03EFA002844D04E
:10511000504659460022354B11F012FE02460B460E
:105120003046394611F00AFE00224FF0404311F09C
:10513000B9FF1FE702460B465046594611F0FEFDE7
:1051400000222A4B11F0AEFF0022284B11F0F6FD91
:1051500010E7019C4FF400132341C3F17F575246DF
:105160005B4611F0EBFD002607F5401702460B46A3
:105170003046394611F0E2FD01EB0451FAE616A380
:10518000D3E9002311F08EFF002C02460B464FF0AE
:105190000000FFF61CAE154924E732463B46504658
:1051A000594611F0CBFD02460B4611F0C9FD002215
:1051B0000F4B11F0C5FDDDE611F0C2FD4FF0FF33DE
:1051C00080468946019306A7D7E9006729E702468A
:1051D0000B4611F0B5FDCDE6FE822B654715F73F76
:1051E000763C7935EF39EABD0000D0BF0000E03FE2
:1051F0000000F03F00000000F8B5C1F30A56044675
:105200000D460B4617460EBB21F00043034386466E
:1052100025D00022344B11F045FF344A9742044612
:105220000D460B462ADBC1F30A56363E3E4440F299
:10523000FE72964228DC002E12DD23F0FF4323F499
:10524000E00343EA065520462946F8BD40F2FF72C6
:105250009642EBD102460B4611F072FDF8BDF8BD47
:1052600016F1350F1DDA4CF250339F4222462B4681
:1052700025DC19A1D1E9000111F0D2FC16A3D3E974
:10528000002311F00FFFF8BD22462B4614A1D1E9EF
:10529000000111F0C5FC12A3D3E9002311F002FFB5
:1052A000F8BD23F0FF4323F4E003363643EA065506
:1052B0002046294600220E4B11F0F4FEF8BD08A14D
:1052C000D1E9000111F0ACFC05A3D3E9002311F0F2
:1052D000E9FEF8BDAFF3008059F3F8C21F6EA501D7
:1052E0009C7500883CE4377E00005043B03CFFFFD3
:1052F0000000903C10B5054C237833B9044B13B132
:105300000448AFF300800123237010BD1005002076
:1053100000000000B49A01000C4B43B10C480D4949
:1053200010B5AFF300800C48036823B910BD0A48DC
:10533000036833B97047094B002BF7D0BDE8104024
:105340001847064B002BF5D0184700BF000000009F
:10535000B49A010014050020100200200000000093
:10536000154B002B08BF134B9D46A3F5803A002137
:105370008B460F461348144A121A07F0F3FF0F4BDF
:10538000002B00D098470E4B002B00D098470020F0
:10539000002104000D000D48002802D00C48AFF396
:1053A000008011F073FC2000290005F06BF911F06A
:1053B00059FC00BF000008000000022000000000AF
:1053C0000000000000040020800C0020000000000D
:1053D0000000000070B504460E4600F0D1F888B118
:1053E0000368DB6A05469847082C0CD0A4F1090332
:1053F000012B14D93246214610230D20BDE8704000
:1054000004F094B870BD2B6828465B6A9847022860
:10541000F0DC2B6828461B6A04219847EAE72B68D2
:1054200028465B6A98470528E4DC2B6828461B6AF7
:1054300008219847DEE700BF30B52DED028B83B021
:10544000054600F09DF8044640B10368DB6A9847C2
:10545000032D50D8DFE805F0373F47080190019849
:1054600003B0BDEC028B30BD20460BF0CFFA07EE47
:10547000900A2046F8EEE78A0BF0D8FA07EE900A79
:105480002046B8EEE78A0BF0E1FA68EE087A07EEFC
:10549000100AE8EEA87AB8EEC77AE7EE077AF5EEDA
:1054A000407AF1EE10FAB1EEE78A03D517EE900AD2
:1054B00010F040FAFDEEC87ACDED017A019803B004
:1054C000BDEC028B30BD204603B0BDEC028BBDE8C5
:1054D00030400BF09BBA204603B0BDEC028BBDE818
:1054E00030400BF0A3BA204603B0BDEC028BBDE800
:1054F00030400BF0ABBA00230193B0E738B5054656
:1055000000F03EF858B10368DB6A0446984745B19D
:10551000012D04D12046BDE83840FBF79DB800209E
:1055200038BD2046BDE83840FBF776B810B50446D4
:1055300000F026F828B1036821461B6ABDE8104038
:10554000184710BD0048704716FCFFFF704700BFAA
:1055500010B5034B036004460BF038F8204610BD2D
:105560002890010010B5054B036004460BF02EF89F
:10557000204612F0D9FA204610BD00BF2890010045
:105580002DE9F043C04C236885B01BB1986805B085
:10559000BDE8F0834FF0FF31012001F0FFFCC0B205
:1055A00004F014FB002800F0ED800C2012F0BEFA8D
:1055B00003210646512001F0F1FCDFF8FCE2B34B79
:1055C000054605F00F07C5F3031815F4807518BFDD
:1055D0007346AF48394642460AF0F6F92A1C18BF0E
:1055E00001223946434630460DF076F90023A9489A
:1055F000B3600AF0E9F94FF0FF31032001F0CEFC6F
:10560000C0B204F0E3FA4FF0FF310546022001F08A
:10561000C5FCC0B204F0DAFA002D00F09A80002830
:1056200000F097800146284604F062F807460028FB
:1056300000F0A4804FF0FF31462001F0AFFC32288B
:1056400080462BD028DD382869D068283FD14FF01C
:10565000FF31012001F0A2FCC0B204F0B7FA81468C
:105660004C2012F063FA0523054601934A46CDF813
:105670000080394633460CF0FFF82846B0600368D6
:105680009B6A9847B0680368DB6A984782480AF0CB
:105690009BF92660B0687AE7302818D14FF0FF31C7
:1056A000012001F07BFCC0B204F090FA81464C204E
:1056B00012F03CFA1FFA88F1054605234A4600918C
:1056C0000193394633460BF0B9FE2846D6E73A68CF
:1056D0000125002301950095D2F82080B3600F22A8
:1056E0000DF10F0332213846C047002856D14FF044
:1056F0003208414669480AF067F94FF0FF3101204E
:1057000001F04CFCC0B204F061FA81464C2012F06A
:105710000DFA052305464A46CDF80080D0E74FF044
:10572000FF31012001F03AFCC0B204F04FFA81468B
:10573000442012F0FBF9052305464A46CDF80080C7
:105740003946019333460BF0EFFF554B2B6028464B
:1057500094E754480AF038F94FF0FF31192001F06E
:105760001DFCC0B204F032FA4FF0FF31054618209C
:1057700001F014FCC0B204F029FA53E74A480AF0D9
:1057800023F986E74FF0FF31032001F007FCC0B298
:1057900004F01CFA00287FF408AFF8E63B68019596
:1057A0000095D3F820800F220DF10F0330213846E9
:1057B000C04718B94FF0300841469BE73B68019558
:1057C0000095D3F820800D220DF10F0338213846C3
:1057D000C047C0B9382131480AF0F6F84FF0FF3120
:1057E000284601F0DBFBC0B204F0F0F9804644200B
:1057F00012F09CF94FF0050E382305464246394613
:105800008DE808409EE73A6801950095D2F820801F
:105810000DF10F03752268213846C047E0B96821B1
:105820001E480AF0D1F84FF0FF31284601F0B6FBD0
:10583000C0B204F0CBF980464C2012F077F94FF05B
:10584000050E682305468DE8084042463946334632
:105850000CF012F8284611E714480AF0B5F8B068C1
:1058600000287FF40CAF4FF0FF31032001F096FBCE
:10587000C0B204F0ABF918B10D480AF0A5F808E77A
:105880000C480AF0A1F804E72C050020B4830100BD
:10589000BC830100DC830100748401009884010052
:1058A00078830100EC8301000084010084840100FE
:1058B0001884010054840100AC83010008B501F094
:1058C00095FCFBF76DFCBDE8084001F0FDB900BF99
:1058D00008B501F08BFCFBF7D3FCBDE8084001F0F4
:1058E000F3B900BF08B501F081FC0FF04DFBBDE836
:1058F000084001F0E9B900BF08B501F077FC0FF0EE
:1059000055FFBDE8084001F0DFB900BF08B501F060
:105910006DFCFBF755FCBDE8084001F0D5B900BFB0
:1059200008B501F063FC0FF06DFDBDE8084001F023
:10593000CBB900BF08B501F059FCFAF7ADFEBDE8E0
:10594000084001F0C1B900BF08B501F04FFC0FF0ED
:10595000ADFCBDE8084001F0B7B900BF70B5049ECA
:1059600096420C4628DB15466BB1002A00EB02017B
:1059700007DD2046A21811F8013D00F8013B9042D6
:10598000F9D1002070BD042A0FD0022A02D110F0F4
:10599000010306D001462A46204606F0F3FA00200D
:1059A00070BD02880A80184670BD10F00303F1D163
:1059B00002680A60184670BD0846002107F0D2FC54
:1059C0004FF0FF3070BD00BF0830704740B1002974
:1059D00005DB4368994202DA0844007A70470020E8
:1059E000704700BF30B1002904DB43689942BCBF57
:1059F00040180272704700BF40B1002905DB4368C0
:105A0000994202DA0844007A70470020704700BFCC
:105A1000830705D120B1030F0CBF01200020704780
:105A20000120704730B1002904DB43689942BCBFB4
:105A300040180272704700BF002B23DB002921DBD6
:105A400070B54668B1421ADC5568761A1446EA1AEF
:105A5000B242A8BF3246002A11DB84420D4607D06D
:105A6000083408300844E11806F08CFA002070BDB4
:105A70000834E118601912F087F8002070BD4FF06B
:105A8000FF3070BD4FF0FF30704700BF4068704777
:105A900010B4141E10DB426894420DDC33EA230379
:105AA00028BF1346121B08309A422044A8BF1A464A
:105AB0005DF8044B07F056BC5DF8044B704700BF1F
:105AC00043688B4210B400F108041846A8BF08468A
:105AD00032EA220128BF19461B1A99422044A8BF66
